{
  "_format": "hh-sol-artifact-1",
  "contractName": "MyNFT",
  "sourceName": "contracts/MyNFT.sol",
  "abi": [
    {
      "inputs": [],
      "stateMutability": "nonpayable",
      "type": "constructor"
    },
    {
      "inputs": [
        {
          "internalType": "address",
          "name": "sender",
          "type": "address"
        },
        {
          "internalType": "uint256",
          "name": "tokenId",
          "type": "uint256"
        },
        {
          "internalType": "address",
          "name": "owner",
          "type": "address"
        }
      ],
      "name": "ERC721IncorrectOwner",
      "type": "error"
    },
    {
      "inputs": [
        {
          "internalType": "address",
          "name": "operator",
          "type": "address"
        },
        {
          "internalType": "uint256",
          "name": "tokenId",
          "type": "uint256"
        }
      ],
      "name": "ERC721InsufficientApproval",
      "type": "error"
    },
    {
      "inputs": [
        {
          "internalType": "address",
          "name": "approver",
          "type": "address"
        }
      ],
      "name": "ERC721InvalidApprover",
      "type": "error"
    },
    {
      "inputs": [
        {
          "internalType": "address",
          "name": "operator",
          "type": "address"
        }
      ],
      "name": "ERC721InvalidOperator",
      "type": "error"
    },
    {
      "inputs": [
        {
          "internalType": "address",
          "name": "owner",
          "type": "address"
        }
      ],
      "name": "ERC721InvalidOwner",
      "type": "error"
    },
    {
      "inputs": [
        {
          "internalType": "address",
          "name": "receiver",
          "type": "address"
        }
      ],
      "name": "ERC721InvalidReceiver",
      "type": "error"
    },
    {
      "inputs": [
        {
          "internalType": "address",
          "name": "sender",
          "type": "address"
        }
      ],
      "name": "ERC721InvalidSender",
      "type": "error"
    },
    {
      "inputs": [
        {
          "internalType": "uint256",
          "name": "tokenId",
          "type": "uint256"
        }
      ],
      "name": "ERC721NonexistentToken",
      "type": "error"
    },
    {
      "inputs": [
        {
          "internalType": "address",
          "name": "owner",
          "type": "address"
        }
      ],
      "name": "OwnableInvalidOwner",
      "type": "error"
    },
    {
      "inputs": [
        {
          "internalType": "address",
          "name": "account",
          "type": "address"
        }
      ],
      "name": "OwnableUnauthorizedAccount",
      "type": "error"
    },
    {
      "inputs": [
        {
          "internalType": "uint256",
          "name": "value",
          "type": "uint256"
        },
        {
          "internalType": "uint256",
          "name": "length",
          "type": "uint256"
        }
      ],
      "name": "StringsInsufficientHexLength",
      "type": "error"
    },
    {
      "anonymous": false,
      "inputs": [
        {
          "indexed": true,
          "internalType": "address",
          "name": "admin",
          "type": "address"
        }
      ],
      "name": "AdminAdded",
      "type": "event"
    },
    {
      "anonymous": false,
      "inputs": [
        {
          "indexed": true,
          "internalType": "address",
          "name": "admin",
          "type": "address"
        }
      ],
      "name": "AdminRemoved",
      "type": "event"
    },
    {
      "anonymous": false,
      "inputs": [
        {
          "indexed": true,
          "internalType": "address",
          "name": "owner",
          "type": "address"
        },
        {
          "indexed": true,
          "internalType": "address",
          "name": "approved",
          "type": "address"
        },
        {
          "indexed": true,
          "internalType": "uint256",
          "name": "tokenId",
          "type": "uint256"
        }
      ],
      "name": "Approval",
      "type": "event"
    },
    {
      "anonymous": false,
      "inputs": [
        {
          "indexed": true,
          "internalType": "address",
          "name": "owner",
          "type": "address"
        },
        {
          "indexed": true,
          "internalType": "address",
          "name": "operator",
          "type": "address"
        },
        {
          "indexed": false,
          "internalType": "bool",
          "name": "approved",
          "type": "bool"
        }
      ],
      "name": "ApprovalForAll",
      "type": "event"
    },
    {
      "anonymous": false,
      "inputs": [
        {
          "indexed": false,
          "internalType": "uint256",
          "name": "_fromTokenId",
          "type": "uint256"
        },
        {
          "indexed": false,
          "internalType": "uint256",
          "name": "_toTokenId",
          "type": "uint256"
        }
      ],
      "name": "BatchMetadataUpdate",
      "type": "event"
    },
    {
      "anonymous": false,
      "inputs": [
        {
          "indexed": true,
          "internalType": "uint256",
          "name": "eventId",
          "type": "uint256"
        },
        {
          "indexed": false,
          "internalType": "address",
          "name": "participant",
          "type": "address"
        },
        {
          "indexed": false,
          "internalType": "uint256",
          "name": "tokenId",
          "type": "uint256"
        }
      ],
      "name": "CheckedIn",
      "type": "event"
    },
    {
      "anonymous": false,
      "inputs": [
        {
          "indexed": true,
          "internalType": "uint256",
          "name": "eventId",
          "type": "uint256"
        }
      ],
      "name": "EventApproved",
      "type": "event"
    },
    {
      "anonymous": false,
      "inputs": [
        {
          "indexed": true,
          "internalType": "uint256",
          "name": "eventId",
          "type": "uint256"
        },
        {
          "indexed": false,
          "internalType": "string",
          "name": "name",
          "type": "string"
        },
        {
          "indexed": false,
          "internalType": "address",
          "name": "organizer",
          "type": "address"
        }
      ],
      "name": "EventCreated",
      "type": "event"
    },
    {
      "anonymous": false,
      "inputs": [
        {
          "indexed": true,
          "internalType": "uint256",
          "name": "eventId",
          "type": "uint256"
        }
      ],
      "name": "EventRejected",
      "type": "event"
    },
    {
      "anonymous": false,
      "inputs": [
        {
          "indexed": false,
          "internalType": "uint256",
          "name": "_tokenId",
          "type": "uint256"
        }
      ],
      "name": "MetadataUpdate",
      "type": "event"
    },
    {
      "anonymous": false,
      "inputs": [
        {
          "indexed": true,
          "internalType": "address",
          "name": "previousOwner",
          "type": "address"
        },
        {
          "indexed": true,
          "internalType": "address",
          "name": "newOwner",
          "type": "address"
        }
      ],
      "name": "OwnershipTransferred",
      "type": "event"
    },
    {
      "anonymous": false,
      "inputs": [
        {
          "indexed": true,
          "internalType": "address",
          "name": "from",
          "type": "address"
        },
        {
          "indexed": true,
          "internalType": "address",
          "name": "to",
          "type": "address"
        },
        {
          "indexed": true,
          "internalType": "uint256",
          "name": "tokenId",
          "type": "uint256"
        }
      ],
      "name": "Transfer",
      "type": "event"
    },
    {
      "inputs": [
        {
          "internalType": "address",
          "name": "admin",
          "type": "address"
        }
      ],
      "name": "addAdmin",
      "outputs": [],
      "stateMutability": "nonpayable",
      "type": "function"
    },
    {
      "inputs": [
        {
          "internalType": "address",
          "name": "",
          "type": "address"
        }
      ],
      "name": "admins",
      "outputs": [
        {
          "internalType": "bool",
          "name": "",
          "type": "bool"
        }
      ],
      "stateMutability": "view",
      "type": "function"
    },
    {
      "inputs": [
        {
          "internalType": "address",
          "name": "to",
          "type": "address"
        },
        {
          "internalType": "uint256",
          "name": "tokenId",
          "type": "uint256"
        }
      ],
      "name": "approve",
      "outputs": [],
      "stateMutability": "nonpayable",
      "type": "function"
    },
    {
      "inputs": [
        {
          "internalType": "uint256",
          "name": "eventId",
          "type": "uint256"
        }
      ],
      "name": "approveEvent",
      "outputs": [],
      "stateMutability": "nonpayable",
      "type": "function"
    },
    {
      "inputs": [
        {
          "internalType": "address",
          "name": "owner",
          "type": "address"
        }
      ],
      "name": "balanceOf",
      "outputs": [
        {
          "internalType": "uint256",
          "name": "",
          "type": "uint256"
        }
      ],
      "stateMutability": "view",
      "type": "function"
    },
    {
      "inputs": [
        {
          "internalType": "uint256",
          "name": "eventId",
          "type": "uint256"
        },
        {
          "internalType": "string",
          "name": "qrCode",
          "type": "string"
        }
      ],
      "name": "checkIn",
      "outputs": [],
      "stateMutability": "nonpayable",
      "type": "function"
    },
    {
      "inputs": [
        {
          "internalType": "string",
          "name": "name",
          "type": "string"
        },
        {
          "internalType": "string",
          "name": "description",
          "type": "string"
        },
        {
          "internalType": "uint256",
          "name": "startTime",
          "type": "uint256"
        },
        {
          "internalType": "uint256",
          "name": "endTime",
          "type": "uint256"
        },
        {
          "internalType": "uint256",
          "name": "maxParticipants",
          "type": "uint256"
        }
      ],
      "name": "createEvent",
      "outputs": [],
      "stateMutability": "nonpayable",
      "type": "function"
    },
    {
      "inputs": [
        {
          "internalType": "uint256",
          "name": "",
          "type": "uint256"
        }
      ],
      "name": "events",
      "outputs": [
        {
          "internalType": "uint256",
          "name": "id",
          "type": "uint256"
        },
        {
          "internalType": "string",
          "name": "name",
          "type": "string"
        },
        {
          "internalType": "string",
          "name": "description",
          "type": "string"
        },
        {
          "internalType": "address",
          "name": "organizer",
          "type": "address"
        },
        {
          "internalType": "uint256",
          "name": "startTime",
          "type": "uint256"
        },
        {
          "internalType": "uint256",
          "name": "endTime",
          "type": "uint256"
        },
        {
          "internalType": "uint256",
          "name": "maxParticipants",
          "type": "uint256"
        },
        {
          "internalType": "uint256",
          "name": "currentParticipants",
          "type": "uint256"
        },
        {
          "internalType": "uint8",
          "name": "status",
          "type": "uint8"
        },
        {
          "internalType": "bytes32",
          "name": "qrCodeHash",
          "type": "bytes32"
        }
      ],
      "stateMutability": "view",
      "type": "function"
    },
    {
      "inputs": [
        {
          "internalType": "uint256",
          "name": "tokenId",
          "type": "uint256"
        }
      ],
      "name": "getApproved",
      "outputs": [
        {
          "internalType": "address",
          "name": "",
          "type": "address"
        }
      ],
      "stateMutability": "view",
      "type": "function"
    },
    {
      "inputs": [
        {
          "internalType": "uint256",
          "name": "eventId",
          "type": "uint256"
        }
      ],
      "name": "getEvent",
      "outputs": [
        {
          "components": [
            {
              "internalType": "uint256",
              "name": "id",
              "type": "uint256"
            },
            {
              "internalType": "string",
              "name": "name",
              "type": "string"
            },
            {
              "internalType": "string",
              "name": "description",
              "type": "string"
            },
            {
              "internalType": "address",
              "name": "organizer",
              "type": "address"
            },
            {
              "internalType": "uint256",
              "name": "startTime",
              "type": "uint256"
            },
            {
              "internalType": "uint256",
              "name": "endTime",
              "type": "uint256"
            },
            {
              "internalType": "uint256",
              "name": "maxParticipants",
              "type": "uint256"
            },
            {
              "internalType": "uint256",
              "name": "currentParticipants",
              "type": "uint256"
            },
            {
              "internalType": "uint8",
              "name": "status",
              "type": "uint8"
            },
            {
              "internalType": "bytes32",
              "name": "qrCodeHash",
              "type": "bytes32"
            }
          ],
          "internalType": "struct MyNFT.Event",
          "name": "",
          "type": "tuple"
        }
      ],
      "stateMutability": "view",
      "type": "function"
    },
    {
      "inputs": [],
      "name": "getEventCount",
      "outputs": [
        {
          "internalType": "uint256",
          "name": "",
          "type": "uint256"
        }
      ],
      "stateMutability": "view",
      "type": "function"
    },
    {
      "inputs": [
        {
          "internalType": "uint256",
          "name": "",
          "type": "uint256"
        },
        {
          "internalType": "address",
          "name": "",
          "type": "address"
        }
      ],
      "name": "hasCheckedIn",
      "outputs": [
        {
          "internalType": "bool",
          "name": "",
          "type": "bool"
        }
      ],
      "stateMutability": "view",
      "type": "function"
    },
    {
      "inputs": [
        {
          "internalType": "address",
          "name": "owner",
          "type": "address"
        },
        {
          "internalType": "address",
          "name": "operator",
          "type": "address"
        }
      ],
      "name": "isApprovedForAll",
      "outputs": [
        {
          "internalType": "bool",
          "name": "",
          "type": "bool"
        }
      ],
      "stateMutability": "view",
      "type": "function"
    },
    {
      "inputs": [],
      "name": "name",
      "outputs": [
        {
          "internalType": "string",
          "name": "",
          "type": "string"
        }
      ],
      "stateMutability": "view",
      "type": "function"
    },
    {
      "inputs": [],
      "name": "owner",
      "outputs": [
        {
          "internalType": "address",
          "name": "",
          "type": "address"
        }
      ],
      "stateMutability": "view",
      "type": "function"
    },
    {
      "inputs": [
        {
          "internalType": "uint256",
          "name": "tokenId",
          "type": "uint256"
        }
      ],
      "name": "ownerOf",
      "outputs": [
        {
          "internalType": "address",
          "name": "",
          "type": "address"
        }
      ],
      "stateMutability": "view",
      "type": "function"
    },
    {
      "inputs": [
        {
          "internalType": "uint256",
          "name": "eventId",
          "type": "uint256"
        }
      ],
      "name": "rejectEvent",
      "outputs": [],
      "stateMutability": "nonpayable",
      "type": "function"
    },
    {
      "inputs": [
        {
          "internalType": "address",
          "name": "admin",
          "type": "address"
        }
      ],
      "name": "removeAdmin",
      "outputs": [],
      "stateMutability": "nonpayable",
      "type": "function"
    },
    {
      "inputs": [],
      "name": "renounceOwnership",
      "outputs": [],
      "stateMutability": "nonpayable",
      "type": "function"
    },
    {
      "inputs": [
        {
          "internalType": "address",
          "name": "from",
          "type": "address"
        },
        {
          "internalType": "address",
          "name": "to",
          "type": "address"
        },
        {
          "internalType": "uint256",
          "name": "tokenId",
          "type": "uint256"
        }
      ],
      "name": "safeTransferFrom",
      "outputs": [],
      "stateMutability": "nonpayable",
      "type": "function"
    },
    {
      "inputs": [
        {
          "internalType": "address",
          "name": "from",
          "type": "address"
        },
        {
          "internalType": "address",
          "name": "to",
          "type": "address"
        },
        {
          "internalType": "uint256",
          "name": "tokenId",
          "type": "uint256"
        },
        {
          "internalType": "bytes",
          "name": "data",
          "type": "bytes"
        }
      ],
      "name": "safeTransferFrom",
      "outputs": [],
      "stateMutability": "nonpayable",
      "type": "function"
    },
    {
      "inputs": [
        {
          "internalType": "address",
          "name": "operator",
          "type": "address"
        },
        {
          "internalType": "bool",
          "name": "approved",
          "type": "bool"
        }
      ],
      "name": "setApprovalForAll",
      "outputs": [],
      "stateMutability": "nonpayable",
      "type": "function"
    },
    {
      "inputs": [
        {
          "internalType": "bytes4",
          "name": "interfaceId",
          "type": "bytes4"
        }
      ],
      "name": "supportsInterface",
      "outputs": [
        {
          "internalType": "bool",
          "name": "",
          "type": "bool"
        }
      ],
      "stateMutability": "view",
      "type": "function"
    },
    {
      "inputs": [],
      "name": "symbol",
      "outputs": [
        {
          "internalType": "string",
          "name": "",
          "type": "string"
        }
      ],
      "stateMutability": "view",
      "type": "function"
    },
    {
      "inputs": [
        {
          "internalType": "uint256",
          "name": "tokenId",
          "type": "uint256"
        }
      ],
      "name": "tokenURI",
      "outputs": [
        {
          "internalType": "string",
          "name": "",
          "type": "string"
        }
      ],
      "stateMutability": "view",
      "type": "function"
    },
    {
      "inputs": [
        {
          "internalType": "address",
          "name": "from",
          "type": "address"
        },
        {
          "internalType": "address",
          "name": "to",
          "type": "address"
        },
        {
          "internalType": "uint256",
          "name": "tokenId",
          "type": "uint256"
        }
      ],
      "name": "transferFrom",
      "outputs": [],
      "stateMutability": "nonpayable",
      "type": "function"
    },
    {
      "inputs": [
        {
          "internalType": "address",
          "name": "newOwner",
          "type": "address"
        }
      ],
      "name": "transferOwnership",
      "outputs": [],
      "stateMutability": "nonpayable",
      "type": "function"
    }
  ],
  "bytecode": "0x60806040523480156200001157600080fd5b50336040518060400160405280601081526020017f43616d707573204576656e74204e4654000000000000000000000000000000008152506040518060400160405280600581526020017f43454e46540000000000000000000000000000000000000000000000000000008152508160009081620000909190620004ca565b508060019081620000a29190620004ca565b505050600073ffffffffffffffffffffffffffffffffffffffff168173ffffffffffffffffffffffffffffffffffffffff16036200011a5760006040517f1e4fbdf7000000000000000000000000000000000000000000000000000000008152600401620001119190620005f6565b60405180910390fd5b6200012b816200018a60201b60201c565b506001600a60003373ffffffffffffffffffffffffffffffffffffffff1673ffffffffffffffffffffffffffffffffffffffff16815260200190815260200160002060006101000a81548160ff02191690831515021790555062000613565b6000600760009054906101000a900473ffffffffffffffffffffffffffffffffffffffff16905081600760006101000a81548173ffffffffffffffffffffffffffffffffffffffff021916908373ffffffffffffffffffffffffffffffffffffffff1602179055508173ffffffffffffffffffffffffffffffffffffffff168173ffffffffffffffffffffffffffffffffffffffff167f8be0079c531659141344cd1fd0a4f28419497f9722a3daafe3b4186f6b6457e060405160405180910390a35050565b600081519050919050565b7f4e487b7100000000000000000000000000000000000000000000000000000000600052604160045260246000fd5b7f4e487b7100000000000000000000000000000000000000000000000000000000600052602260045260246000fd5b60006002820490506001821680620002d257607f821691505b602082108103620002e857620002e76200028a565b5b50919050565b60008190508160005260206000209050919050565b60006020601f8301049050919050565b600082821b905092915050565b600060088302620003527fffffffffffffffffffffffffffffffffffffffffffffffffffffffffffffffff8262000313565b6200035e868362000313565b95508019841693508086168417925050509392505050565b6000819050919050565b6000819050919050565b6000620003ab620003a56200039f8462000376565b62000380565b62000376565b9050919050565b6000819050919050565b620003c7836200038a565b620003df620003d682620003b2565b84845462000320565b825550505050565b600090565b620003f6620003e7565b62000403818484620003bc565b505050565b5b818110156200042b576200041f600082620003ec565b60018101905062000409565b5050565b601f8211156200047a576200044481620002ee565b6200044f8462000303565b810160208510156200045f578190505b620004776200046e8562000303565b83018262000408565b50505b505050565b600082821c905092915050565b60006200049f600019846008026200047f565b1980831691505092915050565b6000620004ba83836200048c565b9150826002028217905092915050565b620004d58262000250565b67ffffffffffffffff811115620004f157620004f06200025b565b5b620004fd8254620002b9565b6200050a8282856200042f565b600060209050601f8311600181146200054257600084156200052d578287015190505b620005398582620004ac565b865550620005a9565b601f1984166200055286620002ee565b60005b828110156200057c5784890151825560018201915060208501945060208101905062000555565b868310156200059c578489015162000598601f8916826200048c565b8355505b6001600288020188555050505b505050505050565b600073ffffffffffffffffffffffffffffffffffffffff82169050919050565b6000620005de82620005b1565b9050919050565b620005f081620005d1565b82525050565b60006020820190506200060d6000830184620005e5565b92915050565b614e9580620006236000396000f3fe608060405234801561001057600080fd5b50600436106101a95760003560e01c80636d1884e0116100f9578063a22cb46511610097578063c87b56dd11610071578063c87b56dd146104cf578063d9e48f5c146104ff578063e985e9c51461051d578063f2fde38b1461054d576101a9565b8063a22cb4651461047b578063abb3d00514610497578063b88d4fde146104b3576101a9565b8063715018a6116100d3578063715018a6146104055780637d042ddd1461040f5780638da5cb5b1461043f57806395d89b411461045d576101a9565b80636d1884e01461038957806370480275146103b957806370a08231146103d5576101a9565b806323b872dd11610166578063429b62e511610140578063429b62e5146102f15780635f1cd158146103215780636352211e1461033d57806367deced21461036d576101a9565b806323b872dd1461029d5780633c2fc56c146102b957806342842e0e146102d5576101a9565b806301ffc9a7146101ae57806306fdde03146101de578063081812fc146101fc578063095ea7b31461022c5780630b791430146102485780631785f53c14610281575b600080fd5b6101c860048036038101906101c391906130c3565b610569565b6040516101d5919061310b565b60405180910390f35b6101e66105ca565b6040516101f391906131b6565b60405180910390f35b6102166004803603810190610211919061320e565b61065c565b604051610223919061327c565b60405180910390f35b610246600480360381019061024191906132c3565b610678565b005b610262600480360381019061025d919061320e565b61068e565b6040516102789a99989796959493929190613347565b60405180910390f35b61029b600480360381019061029691906133f1565b61081f565b005b6102b760048036038101906102b2919061341e565b610951565b005b6102d360048036038101906102ce91906135a6565b610a53565b005b6102ef60048036038101906102ea919061341e565b610cc7565b005b61030b600480360381019061030691906133f1565b610ce7565b604051610318919061310b565b60405180910390f35b61033b6004803603810190610336919061320e565b610d07565b005b6103576004803603810190610352919061320e565b610f11565b604051610364919061327c565b60405180910390f35b61038760048036038101906103829190613659565b610f23565b005b6103a3600480360381019061039e919061320e565b61130a565b6040516103b0919061381c565b60405180910390f35b6103d360048036038101906103ce91906133f1565b61150b565b005b6103ef60048036038101906103ea91906133f1565b61163e565b6040516103fc919061383e565b60405180910390f35b61040d6116f8565b005b61042960048036038101906104249190613859565b61170c565b604051610436919061310b565b60405180910390f35b61044761173b565b604051610454919061327c565b60405180910390f35b610465611765565b60405161047291906131b6565b60405180910390f35b610495600480360381019061049091906138c5565b6117f7565b005b6104b160048036038101906104ac919061320e565b61180d565b005b6104cd60048036038101906104c891906139a6565b611956565b005b6104e960048036038101906104e4919061320e565b61197b565b6040516104f691906131b6565b60405180910390f35b610507611a8e565b604051610514919061383e565b60405180910390f35b61053760048036038101906105329190613a29565b611a98565b604051610544919061310b565b60405180910390f35b610567600480360381019061056291906133f1565b611b2c565b005b6000634906490660e01b7bffffffffffffffffffffffffffffffffffffffffffffffffffffffff1916827bffffffffffffffffffffffffffffffffffffffffffffffffffffffff191614806105c357506105c282611bb2565b5b9050919050565b6060600080546105d990613a98565b80601f016020809104026020016040519081016040528092919081815260200182805461060590613a98565b80156106525780601f1061062757610100808354040283529160200191610652565b820191906000526020600020905b81548152906001019060200180831161063557829003601f168201915b5050505050905090565b600061066782611c94565b5061067182611d1c565b9050919050565b61068a8282610685611d59565b611d61565b5050565b600b6020528060005260406000206000915090508060000154908060010180546106b790613a98565b80601f01602080910402602001604051908101604052809291908181526020018280546106e390613a98565b80156107305780601f1061070557610100808354040283529160200191610730565b820191906000526020600020905b81548152906001019060200180831161071357829003601f168201915b50505050509080600201805461074590613a98565b80601f016020809104026020016040519081016040528092919081815260200182805461077190613a98565b80156107be5780601f10610793576101008083540402835291602001916107be565b820191906000526020600020905b8154815290600101906020018083116107a157829003601f168201915b5050505050908060030160009054906101000a900473ffffffffffffffffffffffffffffffffffffffff16908060040154908060050154908060060154908060070154908060080160009054906101000a900460ff1690806009015490508a565b610827611d73565b600a60008273ffffffffffffffffffffffffffffffffffffffff1673ffffffffffffffffffffffffffffffffffffffff16815260200190815260200160002060009054906101000a900460ff166108b3576040517f08c379a00000000000000000000000000000000000000000000000000000000081526004016108aa90613b15565b60405180910390fd5b6000600a60008373ffffffffffffffffffffffffffffffffffffffff1673ffffffffffffffffffffffffffffffffffffffff16815260200190815260200160002060006101000a81548160ff0219169083151502179055508073ffffffffffffffffffffffffffffffffffffffff167fa3b62bc36326052d97ea62d63c3d60308ed4c3ea8ac079dd8499f1e9c4f80c0f60405160405180910390a250565b600073ffffffffffffffffffffffffffffffffffffffff168273ffffffffffffffffffffffffffffffffffffffff16036109c35760006040517f64a0ae920000000000000000000000000000000000000000000000000000000081526004016109ba919061327c565b60405180910390fd5b60006109d783836109d2611d59565b611dfa565b90508373ffffffffffffffffffffffffffffffffffffffff168173ffffffffffffffffffffffffffffffffffffffff1614610a4d578382826040517f64283d7b000000000000000000000000000000000000000000000000000000008152600401610a4493929190613b35565b60405180910390fd5b50505050565b428311610a95576040517f08c379a0000000000000000000000000000000000000000000000000000000008152600401610a8c90613bb8565b60405180910390fd5b828211610ad7576040517f08c379a0000000000000000000000000000000000000000000000000000000008152600401610ace90613c4a565b60405180910390fd5b60008111610b1a576040517f08c379a0000000000000000000000000000000000000000000000000000000008152600401610b1190613cdc565b60405180910390fd5b60096000815480929190610b2d90613d2b565b9190505550600060095490506040518061014001604052808281526020018781526020018681526020013373ffffffffffffffffffffffffffffffffffffffff16815260200185815260200184815260200183815260200160008152602001600060ff1681526020016000801b815250600b6000838152602001908152602001600020600082015181600001556020820151816001019081610bcf9190613f1f565b506040820151816002019081610be59190613f1f565b5060608201518160030160006101000a81548173ffffffffffffffffffffffffffffffffffffffff021916908373ffffffffffffffffffffffffffffffffffffffff1602179055506080820151816004015560a0820151816005015560c0820151816006015560e082015181600701556101008201518160080160006101000a81548160ff021916908360ff1602179055506101208201518160090155905050807f40fb05b814a900c99fa0a76d919dfdeaf3389540e4ca70f97ba40ca9a38f37978733604051610cb7929190613ff1565b60405180910390a2505050505050565b610ce283838360405180602001604052806000815250611956565b505050565b600a6020528060005260406000206000915054906101000a900460ff1681565b600a60003373ffffffffffffffffffffffffffffffffffffffff1673ffffffffffffffffffffffffffffffffffffffff16815260200190815260200160002060009054906101000a900460ff16610d93576040517f08c379a0000000000000000000000000000000000000000000000000000000008152600401610d8a90614093565b60405180910390fd5b6000600b6000838152602001908152602001600020905060008160080160009054906101000a900460ff1660ff1614610e01576040517f08c379a0000000000000000000000000000000000000000000000000000000008152600401610df8906140ff565b60405180910390fd5b42816004015411610e47576040517f08c379a0000000000000000000000000000000000000000000000000000000008152600401610e3e9061416b565b60405180910390fd5b60018160080160006101000a81548160ff021916908360ff160217905550610e6e82612014565b610eb18260030160009054906101000a900473ffffffffffffffffffffffffffffffffffffffff1673ffffffffffffffffffffffffffffffffffffffff16612014565b604051602001610ec292919061425f565b604051602081830303815290604052805190602001208160090181905550817ff988ceaf44b6372587887da420fed0c685f832316c6ecb58d713b6177806fd9e60405160405180910390a25050565b6000610f1c82611c94565b9050919050565b6000600b6000848152602001908152602001600020905060018160080160009054906101000a900460ff1660ff1614610f91576040517f08c379a0000000000000000000000000000000000000000000000000000000008152600401610f88906142e5565b60405180910390fd5b8060040154421015610fd8576040517f08c379a0000000000000000000000000000000000000000000000000000000008152600401610fcf90614351565b60405180910390fd5b806005015442111561101f576040517f08c379a0000000000000000000000000000000000000000000000000000000008152600401611016906143bd565b60405180910390fd5b600c600084815260200190815260200160002060003373ffffffffffffffffffffffffffffffffffffffff1673ffffffffffffffffffffffffffffffffffffffff16815260200190815260200160002060009054906101000a900460ff16156110bd576040517f08c379a00000000000000000000000000000000000000000000000000000000081526004016110b490614429565b60405180910390fd5b8060060154816007015410611107576040517f08c379a00000000000000000000000000000000000000000000000000000000081526004016110fe90614495565b60405180910390fd5b8180519060200120816009015414611154576040517f08c379a000000000000000000000000000000000000000000000000000000000815260040161114b90614501565b60405180910390fd5b6001600c600085815260200190815260200160002060003373ffffffffffffffffffffffffffffffffffffffff1673ffffffffffffffffffffffffffffffffffffffff16815260200190815260200160002060006101000a81548160ff0219169083151502179055508060070160008154809291906111d290613d2b565b9190505550600860008154809291906111ea90613d2b565b91905055506000600854905061120033826120e2565b600061129e836001018460020161121688612014565b61125b8760030160009054906101000a900473ffffffffffffffffffffffffffffffffffffffff1673ffffffffffffffffffffffffffffffffffffffff1660146121db565b6112688860040154612014565b6112758960050154612014565b60405160200161128a969594939291906149cc565b604051602081830303815290604052612421565b6040516020016112ae9190614b0a565b60405160208183030381529060405290506112c9828261244e565b847f6b2e4e52ba8b5cff4a90d18b1efd0f88c74ed562b5dd3b13f01a1759699b2db233846040516112fb929190614b2c565b60405180910390a25050505050565b611312612fe8565b600b6000838152602001908152602001600020604051806101400160405290816000820154815260200160018201805461134b90613a98565b80601f016020809104026020016040519081016040528092919081815260200182805461137790613a98565b80156113c45780601f10611399576101008083540402835291602001916113c4565b820191906000526020600020905b8154815290600101906020018083116113a757829003601f168201915b505050505081526020016002820180546113dd90613a98565b80601f016020809104026020016040519081016040528092919081815260200182805461140990613a98565b80156114565780601f1061142b57610100808354040283529160200191611456565b820191906000526020600020905b81548152906001019060200180831161143957829003601f168201915b505050505081526020016003820160009054906101000a900473ffffffffffffffffffffffffffffffffffffffff1673ffffffffffffffffffffffffffffffffffffffff1673ffffffffffffffffffffffffffffffffffffffff168152602001600482015481526020016005820154815260200160068201548152602001600782015481526020016008820160009054906101000a900460ff1660ff1660ff1681526020016009820154815250509050919050565b611513611d73565b600a60008273ffffffffffffffffffffffffffffffffffffffff1673ffffffffffffffffffffffffffffffffffffffff16815260200190815260200160002060009054906101000a900460ff16156115a0576040517f08c379a000000000000000000000000000000000000000000000000000000000815260040161159790614ba1565b60405180910390fd5b6001600a60008373ffffffffffffffffffffffffffffffffffffffff1673ffffffffffffffffffffffffffffffffffffffff16815260200190815260200160002060006101000a81548160ff0219169083151502179055508073ffffffffffffffffffffffffffffffffffffffff167f44d6d25963f097ad14f29f06854a01f575648a1ef82f30e562ccd3889717e33960405160405180910390a250565b60008073ffffffffffffffffffffffffffffffffffffffff168273ffffffffffffffffffffffffffffffffffffffff16036116b15760006040517f89c62b640000000000000000000000000000000000000000000000000000000081526004016116a8919061327c565b60405180910390fd5b600360008373ffffffffffffffffffffffffffffffffffffffff1673ffffffffffffffffffffffffffffffffffffffff168152602001908152602001600020549050919050565b611700611d73565b61170a60006124aa565b565b600c6020528160005260406000206020528060005260406000206000915091509054906101000a900460ff1681565b6000600760009054906101000a900473ffffffffffffffffffffffffffffffffffffffff16905090565b60606001805461177490613a98565b80601f01602080910402602001604051908101604052809291908181526020018280546117a090613a98565b80156117ed5780601f106117c2576101008083540402835291602001916117ed565b820191906000526020600020905b8154815290600101906020018083116117d057829003601f168201915b5050505050905090565b611809611802611d59565b8383612570565b5050565b600a60003373ffffffffffffffffffffffffffffffffffffffff1673ffffffffffffffffffffffffffffffffffffffff16815260200190815260200160002060009054906101000a900460ff16611899576040517f08c379a000000000000000000000000000000000000000000000000000000000815260040161189090614093565b60405180910390fd5b6000600b6000838152602001908152602001600020905060008160080160009054906101000a900460ff1660ff1614611907576040517f08c379a00000000000000000000000000000000000000000000000000000000081526004016118fe906140ff565b60405180910390fd5b60028160080160006101000a81548160ff021916908360ff160217905550817fcae5a7b68de1854d70ba5928af954af1ecae12a74ad1a08dff233d44fb1e79ff60405160405180910390a25050565b611961848484610951565b61197561196c611d59565b858585856126df565b50505050565b606061198682611c94565b5060006006600084815260200190815260200160002080546119a790613a98565b80601f01602080910402602001604051908101604052809291908181526020018280546119d390613a98565b8015611a205780601f106119f557610100808354040283529160200191611a20565b820191906000526020600020905b815481529060010190602001808311611a0357829003601f168201915b505050505090506000611a31612890565b90506000815103611a46578192505050611a89565b600082511115611a7b578082604051602001611a63929190614bc1565b60405160208183030381529060405292505050611a89565b611a84846128a7565b925050505b919050565b6000600954905090565b6000600560008473ffffffffffffffffffffffffffffffffffffffff1673ffffffffffffffffffffffffffffffffffffffff16815260200190815260200160002060008373ffffffffffffffffffffffffffffffffffffffff1673ffffffffffffffffffffffffffffffffffffffff16815260200190815260200160002060009054906101000a900460ff16905092915050565b611b34611d73565b600073ffffffffffffffffffffffffffffffffffffffff168173ffffffffffffffffffffffffffffffffffffffff1603611ba65760006040517f1e4fbdf7000000000000000000000000000000000000000000000000000000008152600401611b9d919061327c565b60405180910390fd5b611baf816124aa565b50565b60007f80ac58cd000000000000000000000000000000000000000000000000000000007bffffffffffffffffffffffffffffffffffffffffffffffffffffffff1916827bffffffffffffffffffffffffffffffffffffffffffffffffffffffff19161480611c7d57507f5b5e139f000000000000000000000000000000000000000000000000000000007bffffffffffffffffffffffffffffffffffffffffffffffffffffffff1916827bffffffffffffffffffffffffffffffffffffffffffffffffffffffff1916145b80611c8d5750611c8c82612910565b5b9050919050565b600080611ca08361297a565b9050600073ffffffffffffffffffffffffffffffffffffffff168173ffffffffffffffffffffffffffffffffffffffff1603611d1357826040517f7e273289000000000000000000000000000000000000000000000000000000008152600401611d0a919061383e565b60405180910390fd5b80915050919050565b60006004600083815260200190815260200160002060009054906101000a900473ffffffffffffffffffffffffffffffffffffffff169050919050565b600033905090565b611d6e83838360016129b7565b505050565b611d7b611d59565b73ffffffffffffffffffffffffffffffffffffffff16611d9961173b565b73ffffffffffffffffffffffffffffffffffffffff1614611df857611dbc611d59565b6040517f118cdaa7000000000000000000000000000000000000000000000000000000008152600401611def919061327c565b60405180910390fd5b565b600080611e068461297a565b9050600073ffffffffffffffffffffffffffffffffffffffff168373ffffffffffffffffffffffffffffffffffffffff1614611e4857611e47818486612b7c565b5b600073ffffffffffffffffffffffffffffffffffffffff168173ffffffffffffffffffffffffffffffffffffffff1614611ed957611e8a6000856000806129b7565b6001600360008373ffffffffffffffffffffffffffffffffffffffff1673ffffffffffffffffffffffffffffffffffffffff168152602001908152602001600020600082825403925050819055505b600073ffffffffffffffffffffffffffffffffffffffff168573ffffffffffffffffffffffffffffffffffffffff1614611f5c576001600360008773ffffffffffffffffffffffffffffffffffffffff1673ffffffffffffffffffffffffffffffffffffffff168152602001908152602001600020600082825401925050819055505b846002600086815260200190815260200160002060006101000a81548173ffffffffffffffffffffffffffffffffffffffff021916908373ffffffffffffffffffffffffffffffffffffffff160217905550838573ffffffffffffffffffffffffffffffffffffffff168273ffffffffffffffffffffffffffffffffffffffff167fddf252ad1be2c89b69c2b068fc378daa952ba7f163c4a11628f55a4df523b3ef60405160405180910390a4809150509392505050565b60606000600161202384612c40565b01905060008167ffffffffffffffff8111156120425761204161347b565b5b6040519080825280601f01601f1916602001820160405280156120745781602001600182028036833780820191505090505b509050600082602001820190505b6001156120d7578080600190039150507f3031323334353637383961626364656600000000000000000000000000000000600a86061a8153600a85816120cb576120ca614be5565b5b04945060008503612082575b819350505050919050565b600073ffffffffffffffffffffffffffffffffffffffff168273ffffffffffffffffffffffffffffffffffffffff16036121545760006040517f64a0ae9200000000000000000000000000000000000000000000000000000000815260040161214b919061327c565b60405180910390fd5b600061216283836000611dfa565b9050600073ffffffffffffffffffffffffffffffffffffffff168173ffffffffffffffffffffffffffffffffffffffff16146121d65760006040517f73c6ac6e0000000000000000000000000000000000000000000000000000000081526004016121cd919061327c565b60405180910390fd5b505050565b60606000839050600060028460026121f39190614c14565b6121fd9190614c56565b67ffffffffffffffff8111156122165761221561347b565b5b6040519080825280601f01601f1916602001820160405280156122485781602001600182028036833780820191505090505b5090507f3000000000000000000000000000000000000000000000000000000000000000816000815181106122805761227f614c8a565b5b60200101907effffffffffffffffffffffffffffffffffffffffffffffffffffffffffffff1916908160001a9053507f7800000000000000000000000000000000000000000000000000000000000000816001815181106122e4576122e3614c8a565b5b60200101907effffffffffffffffffffffffffffffffffffffffffffffffffffffffffffff1916908160001a905350600060018560026123249190614c14565b61232e9190614c56565b90505b60018111156123ce577f3031323334353637383961626364656600000000000000000000000000000000600f8416601081106123705761236f614c8a565b5b1a60f81b82828151811061238757612386614c8a565b5b60200101907effffffffffffffffffffffffffffffffffffffffffffffffffffffffffffff1916908160001a905350600483901c9250806123c790614cb9565b9050612331565b50600082146124165784846040517fe22e27eb00000000000000000000000000000000000000000000000000000000815260040161240d929190614ce2565b60405180910390fd5b809250505092915050565b606061244782604051806060016040528060408152602001614e20604091396001612d93565b9050919050565b8060066000848152602001908152602001600020908161246e9190613f1f565b507ff8e1a15aba9398e019f0b49df1a4fde98ee17ae345cb5f6b5e2c27f5033e8ce78260405161249e919061383e565b60405180910390a15050565b6000600760009054906101000a900473ffffffffffffffffffffffffffffffffffffffff16905081600760006101000a81548173ffffffffffffffffffffffffffffffffffffffff021916908373ffffffffffffffffffffffffffffffffffffffff1602179055508173ffffffffffffffffffffffffffffffffffffffff168173ffffffffffffffffffffffffffffffffffffffff167f8be0079c531659141344cd1fd0a4f28419497f9722a3daafe3b4186f6b6457e060405160405180910390a35050565b600073ffffffffffffffffffffffffffffffffffffffff168273ffffffffffffffffffffffffffffffffffffffff16036125e157816040517f5b08ba180000000000000000000000000000000000000000000000000000000081526004016125d8919061327c565b60405180910390fd5b80600560008573ffffffffffffffffffffffffffffffffffffffff1673ffffffffffffffffffffffffffffffffffffffff16815260200190815260200160002060008473ffffffffffffffffffffffffffffffffffffffff1673ffffffffffffffffffffffffffffffffffffffff16815260200190815260200160002060006101000a81548160ff0219169083151502179055508173ffffffffffffffffffffffffffffffffffffffff168373ffffffffffffffffffffffffffffffffffffffff167f17307eab39ab6107e8899845ad3d59bd9653f200f220920489ca2b5937696c31836040516126d2919061310b565b60405180910390a3505050565b60008373ffffffffffffffffffffffffffffffffffffffff163b1115612889578273ffffffffffffffffffffffffffffffffffffffff1663150b7a02868685856040518563ffffffff1660e01b815260040161273e9493929190614d60565b6020604051808303816000875af192505050801561277a57506040513d601f19601f820116820180604052508101906127779190614dc1565b60015b6127fe573d80600081146127aa576040519150601f19603f3d011682016040523d82523d6000602084013e6127af565b606091505b5060008151036127f657836040517f64a0ae920000000000000000000000000000000000000000000000000000000081526004016127ed919061327c565b60405180910390fd5b805181602001fd5b63150b7a0260e01b7bffffffffffffffffffffffffffffffffffffffffffffffffffffffff1916817bffffffffffffffffffffffffffffffffffffffffffffffffffffffff19161461288757836040517f64a0ae9200000000000000000000000000000000000000000000000000000000815260040161287e919061327c565b60405180910390fd5b505b5050505050565b606060405180602001604052806000815250905090565b60606128b282611c94565b5060006128bd612890565b905060008151116128dd5760405180602001604052806000815250612908565b806128e784612014565b6040516020016128f8929190614bc1565b6040516020818303038152906040525b915050919050565b60007f01ffc9a7000000000000000000000000000000000000000000000000000000007bffffffffffffffffffffffffffffffffffffffffffffffffffffffff1916827bffffffffffffffffffffffffffffffffffffffffffffffffffffffff1916149050919050565b60006002600083815260200190815260200160002060009054906101000a900473ffffffffffffffffffffffffffffffffffffffff169050919050565b80806129f05750600073ffffffffffffffffffffffffffffffffffffffff168273ffffffffffffffffffffffffffffffffffffffff1614155b15612b24576000612a0084611c94565b9050600073ffffffffffffffffffffffffffffffffffffffff168373ffffffffffffffffffffffffffffffffffffffff1614158015612a6b57508273ffffffffffffffffffffffffffffffffffffffff168173ffffffffffffffffffffffffffffffffffffffff1614155b8015612a7e5750612a7c8184611a98565b155b15612ac057826040517fa9fbf51f000000000000000000000000000000000000000000000000000000008152600401612ab7919061327c565b60405180910390fd5b8115612b2257838573ffffffffffffffffffffffffffffffffffffffff168273ffffffffffffffffffffffffffffffffffffffff167f8c5be1e5ebec7d5bd14f71427d1e84f3dd0314c0f7b2291e5b200ac8c7c3b92560405160405180910390a45b505b836004600085815260200190815260200160002060006101000a81548173ffffffffffffffffffffffffffffffffffffffff021916908373ffffffffffffffffffffffffffffffffffffffff16021790555050505050565b612b87838383612f27565b612c3b57600073ffffffffffffffffffffffffffffffffffffffff168373ffffffffffffffffffffffffffffffffffffffff1603612bfc57806040517f7e273289000000000000000000000000000000000000000000000000000000008152600401612bf3919061383e565b60405180910390fd5b81816040517f177e802f000000000000000000000000000000000000000000000000000000008152600401612c32929190614b2c565b60405180910390fd5b505050565b600080600090507a184f03e93ff9f4daa797ed6e38ed64bf6a1f0100000000000000008310612c9e577a184f03e93ff9f4daa797ed6e38ed64bf6a1f0100000000000000008381612c9457612c93614be5565b5b0492506040810190505b6d04ee2d6d415b85acef81000000008310612cdb576d04ee2d6d415b85acef81000000008381612cd157612cd0614be5565b5b0492506020810190505b662386f26fc100008310612d0a57662386f26fc100008381612d0057612cff614be5565b5b0492506010810190505b6305f5e1008310612d33576305f5e1008381612d2957612d28614be5565b5b0492506008810190505b6127108310612d58576127108381612d4e57612d4d614be5565b5b0492506004810190505b60648310612d7b5760648381612d7157612d70614be5565b5b0492506002810190505b600a8310612d8a576001810190505b80915050919050565b60606000845103612db557604051806020016040528060008152509050612f20565b600082612de7576003600286516004612dce9190614c14565b612dd89190614c56565b612de29190614dee565b612e0e565b600360028651612df79190614c56565b612e019190614dee565b6004612e0d9190614c14565b5b905060008167ffffffffffffffff811115612e2c57612e2b61347b565b5b6040519080825280601f01601f191660200182016040528015612e5e5781602001600182028036833780820191505090505b50905060018501602082018788518901602081018051600082525b82841015612ed4576003840193508351603f8160121c168701518653600186019550603f81600c1c168701518653600186019550603f8160061c168701518653600186019550603f8116870151865360018601955050612e79565b8082528915612f145760038c510660018114612ef75760028114612f0a57612f12565b603d6001870353603d6002870353612f12565b603d60018703535b505b50505050505080925050505b9392505050565b60008073ffffffffffffffffffffffffffffffffffffffff168373ffffffffffffffffffffffffffffffffffffffff1614158015612fdf57508273ffffffffffffffffffffffffffffffffffffffff168473ffffffffffffffffffffffffffffffffffffffff161480612fa05750612f9f8484611a98565b5b80612fde57508273ffffffffffffffffffffffffffffffffffffffff16612fc683611d1c565b73ffffffffffffffffffffffffffffffffffffffff16145b5b90509392505050565b604051806101400160405280600081526020016060815260200160608152602001600073ffffffffffffffffffffffffffffffffffffffff16815260200160008152602001600081526020016000815260200160008152602001600060ff168152602001600080191681525090565b6000604051905090565b600080fd5b600080fd5b60007fffffffff0000000000000000000000000000000000000000000000000000000082169050919050565b6130a08161306b565b81146130ab57600080fd5b50565b6000813590506130bd81613097565b92915050565b6000602082840312156130d9576130d8613061565b5b60006130e7848285016130ae565b91505092915050565b60008115159050919050565b613105816130f0565b82525050565b600060208201905061312060008301846130fc565b92915050565b600081519050919050565b600082825260208201905092915050565b60005b83811015613160578082015181840152602081019050613145565b60008484015250505050565b6000601f19601f8301169050919050565b600061318882613126565b6131928185613131565b93506131a2818560208601613142565b6131ab8161316c565b840191505092915050565b600060208201905081810360008301526131d0818461317d565b905092915050565b6000819050919050565b6131eb816131d8565b81146131f657600080fd5b50565b600081359050613208816131e2565b92915050565b60006020828403121561322457613223613061565b5b6000613232848285016131f9565b91505092915050565b600073ffffffffffffffffffffffffffffffffffffffff82169050919050565b60006132668261323b565b9050919050565b6132768161325b565b82525050565b6000602082019050613291600083018461326d565b92915050565b6132a08161325b565b81146132ab57600080fd5b50565b6000813590506132bd81613297565b92915050565b600080604083850312156132da576132d9613061565b5b60006132e8858286016132ae565b92505060206132f9858286016131f9565b9150509250929050565b61330c816131d8565b82525050565b600060ff82169050919050565b61332881613312565b82525050565b6000819050919050565b6133418161332e565b82525050565b60006101408201905061335d600083018d613303565b818103602083015261336f818c61317d565b90508181036040830152613383818b61317d565b9050613392606083018a61326d565b61339f6080830189613303565b6133ac60a0830188613303565b6133b960c0830187613303565b6133c660e0830186613303565b6133d461010083018561331f565b6133e2610120830184613338565b9b9a5050505050505050505050565b60006020828403121561340757613406613061565b5b6000613415848285016132ae565b91505092915050565b60008060006060848603121561343757613436613061565b5b6000613445868287016132ae565b9350506020613456868287016132ae565b9250506040613467868287016131f9565b9150509250925092565b600080fd5b600080fd5b7f4e487b7100000000000000000000000000000000000000000000000000000000600052604160045260246000fd5b6134b38261316c565b810181811067ffffffffffffffff821117156134d2576134d161347b565b5b80604052505050565b60006134e5613057565b90506134f182826134aa565b919050565b600067ffffffffffffffff8211156135115761351061347b565b5b61351a8261316c565b9050602081019050919050565b82818337600083830152505050565b6000613549613544846134f6565b6134db565b90508281526020810184848401111561356557613564613476565b5b613570848285613527565b509392505050565b600082601f83011261358d5761358c613471565b5b813561359d848260208601613536565b91505092915050565b600080600080600060a086880312156135c2576135c1613061565b5b600086013567ffffffffffffffff8111156135e0576135df613066565b5b6135ec88828901613578565b955050602086013567ffffffffffffffff81111561360d5761360c613066565b5b61361988828901613578565b945050604061362a888289016131f9565b935050606061363b888289016131f9565b925050608061364c888289016131f9565b9150509295509295909350565b600080604083850312156136705761366f613061565b5b600061367e858286016131f9565b925050602083013567ffffffffffffffff81111561369f5761369e613066565b5b6136ab85828601613578565b9150509250929050565b6136be816131d8565b82525050565b600082825260208201905092915050565b60006136e082613126565b6136ea81856136c4565b93506136fa818560208601613142565b6137038161316c565b840191505092915050565b6137178161325b565b82525050565b61372681613312565b82525050565b6137358161332e565b82525050565b60006101408301600083015161375460008601826136b5565b506020830151848203602086015261376c82826136d5565b9150506040830151848203604086015261378682826136d5565b915050606083015161379b606086018261370e565b5060808301516137ae60808601826136b5565b5060a08301516137c160a08601826136b5565b5060c08301516137d460c08601826136b5565b5060e08301516137e760e08601826136b5565b506101008301516137fc61010086018261371d565b5061012083015161381161012086018261372c565b508091505092915050565b60006020820190508181036000830152613836818461373b565b905092915050565b60006020820190506138536000830184613303565b92915050565b600080604083850312156138705761386f613061565b5b600061387e858286016131f9565b925050602061388f858286016132ae565b9150509250929050565b6138a2816130f0565b81146138ad57600080fd5b50565b6000813590506138bf81613899565b92915050565b600080604083850312156138dc576138db613061565b5b60006138ea858286016132ae565b92505060206138fb858286016138b0565b9150509250929050565b600067ffffffffffffffff8211156139205761391f61347b565b5b6139298261316c565b9050602081019050919050565b600061394961394484613905565b6134db565b90508281526020810184848401111561396557613964613476565b5b613970848285613527565b509392505050565b600082601f83011261398d5761398c613471565b5b813561399d848260208601613936565b91505092915050565b600080600080608085870312156139c0576139bf613061565b5b60006139ce878288016132ae565b94505060206139df878288016132ae565b93505060406139f0878288016131f9565b925050606085013567ffffffffffffffff811115613a1157613a10613066565b5b613a1d87828801613978565b91505092959194509250565b60008060408385031215613a4057613a3f613061565b5b6000613a4e858286016132ae565b9250506020613a5f858286016132ae565b9150509250929050565b7f4e487b7100000000000000000000000000000000000000000000000000000000600052602260045260246000fd5b60006002820490506001821680613ab057607f821691505b602082108103613ac357613ac2613a69565b5b50919050565b7f41646472657373206973206e6f7420616e2061646d696e000000000000000000600082015250565b6000613aff601783613131565b9150613b0a82613ac9565b602082019050919050565b60006020820190508181036000830152613b2e81613af2565b9050919050565b6000606082019050613b4a600083018661326d565b613b576020830185613303565b613b64604083018461326d565b949350505050565b7f53746172742074696d65206d75737420626520696e2074686520667574757265600082015250565b6000613ba2602083613131565b9150613bad82613b6c565b602082019050919050565b60006020820190508181036000830152613bd181613b95565b9050919050565b7f456e642074696d65206d7573742062652061667465722073746172742074696d60008201527f6500000000000000000000000000000000000000000000000000000000000000602082015250565b6000613c34602183613131565b9150613c3f82613bd8565b604082019050919050565b60006020820190508181036000830152613c6381613c27565b9050919050565b7f4d6178207061727469636970616e7473206d757374206265206772656174657260008201527f207468616e203000000000000000000000000000000000000000000000000000602082015250565b6000613cc6602783613131565b9150613cd182613c6a565b604082019050919050565b60006020820190508181036000830152613cf581613cb9565b9050919050565b7f4e487b7100000000000000000000000000000000000000000000000000000000600052601160045260246000fd5b6000613d36826131d8565b91507fffffffffffffffffffffffffffffffffffffffffffffffffffffffffffffffff8203613d6857613d67613cfc565b5b600182019050919050565b60008190508160005260206000209050919050565b60006020601f8301049050919050565b600082821b905092915050565b600060088302613dd57fffffffffffffffffffffffffffffffffffffffffffffffffffffffffffffffff82613d98565b613ddf8683613d98565b95508019841693508086168417925050509392505050565b6000819050919050565b6000613e1c613e17613e12846131d8565b613df7565b6131d8565b9050919050565b6000819050919050565b613e3683613e01565b613e4a613e4282613e23565b848454613da5565b825550505050565b600090565b613e5f613e52565b613e6a818484613e2d565b505050565b5b81811015613e8e57613e83600082613e57565b600181019050613e70565b5050565b601f821115613ed357613ea481613d73565b613ead84613d88565b81016020851015613ebc578190505b613ed0613ec885613d88565b830182613e6f565b50505b505050565b600082821c905092915050565b6000613ef660001984600802613ed8565b1980831691505092915050565b6000613f0f8383613ee5565b9150826002028217905092915050565b613f2882613126565b67ffffffffffffffff811115613f4157613f4061347b565b5b613f4b8254613a98565b613f56828285613e92565b600060209050601f831160018114613f895760008415613f77578287015190505b613f818582613f03565b865550613fe9565b601f198416613f9786613d73565b60005b82811015613fbf57848901518255600182019150602085019450602081019050613f9a565b86831015613fdc5784890151613fd8601f891682613ee5565b8355505b6001600288020188555050505b505050505050565b6000604082019050818103600083015261400b818561317d565b905061401a602083018461326d565b9392505050565b7f4f6e6c792061646d696e2063616e2063616c6c20746869732066756e6374696f60008201527f6e00000000000000000000000000000000000000000000000000000000000000602082015250565b600061407d602183613131565b915061408882614021565b604082019050919050565b600060208201905081810360008301526140ac81614070565b9050919050565b7f4576656e74206973206e6f742070656e64696e67000000000000000000000000600082015250565b60006140e9601483613131565b91506140f4826140b3565b602082019050919050565b60006020820190508181036000830152614118816140dc565b9050919050565b7f4576656e742068617320616c7265616479207374617274656400000000000000600082015250565b6000614155601983613131565b91506141608261411f565b602082019050919050565b6000602082019050818103600083015261418481614148565b9050919050565b600081905092915050565b7f6576656e745f0000000000000000000000000000000000000000000000000000600082015250565b60006141cc60068361418b565b91506141d782614196565b600682019050919050565b60006141ed82613126565b6141f7818561418b565b9350614207818560208601613142565b80840191505092915050565b7f5f00000000000000000000000000000000000000000000000000000000000000600082015250565b600061424960018361418b565b915061425482614213565b600182019050919050565b600061426a826141bf565b915061427682856141e2565b91506142818261423c565b915061428d82846141e2565b91508190509392505050565b7f4576656e74206973206e6f7420617070726f7665640000000000000000000000600082015250565b60006142cf601583613131565b91506142da82614299565b602082019050919050565b600060208201905081810360008301526142fe816142c2565b9050919050565b7f4576656e7420686173206e6f7420737461727465640000000000000000000000600082015250565b600061433b601583613131565b915061434682614305565b602082019050919050565b6000602082019050818103600083015261436a8161432e565b9050919050565b7f4576656e742068617320656e6465640000000000000000000000000000000000600082015250565b60006143a7600f83613131565b91506143b282614371565b602082019050919050565b600060208201905081810360008301526143d68161439a565b9050919050565b7f416c726561647920636865636b656420696e0000000000000000000000000000600082015250565b6000614413601283613131565b915061441e826143dd565b602082019050919050565b6000602082019050818103600083015261444281614406565b9050919050565b7f4576656e742069732066756c6c00000000000000000000000000000000000000600082015250565b600061447f600d83613131565b915061448a82614449565b602082019050919050565b600060208201905081810360008301526144ae81614472565b9050919050565b7f496e76616c696420515220636f64650000000000000000000000000000000000600082015250565b60006144eb600f83613131565b91506144f6826144b5565b602082019050919050565b6000602082019050818103600083015261451a816144de565b9050919050565b7f7b226e616d65223a220000000000000000000000000000000000000000000000600082015250565b600061455760098361418b565b915061456282614521565b600982019050919050565b6000815461457a81613a98565b614584818661418b565b9450600182166000811461459f57600181146145b4576145e7565b60ff19831686528115158202860193506145e7565b6145bd85613d73565b60005b838110156145df578154818901526001820191506020810190506145c0565b838801955050505b50505092915050565b7f222c000000000000000000000000000000000000000000000000000000000000600082015250565b600061462660028361418b565b9150614631826145f0565b600282019050919050565b7f226465736372697074696f6e223a220000000000000000000000000000000000600082015250565b6000614672600f8361418b565b915061467d8261463c565b600f82019050919050565b7f2261747472696275746573223a5b000000000000000000000000000000000000600082015250565b60006146be600e8361418b565b91506146c982614688565b600e82019050919050565b7f7b2274726169745f74797065223a224576656e74204944222c2276616c75652260008201527f3a00000000000000000000000000000000000000000000000000000000000000602082015250565b600061473060218361418b565b915061473b826146d4565b602182019050919050565b7f7d2c000000000000000000000000000000000000000000000000000000000000600082015250565b600061477c60028361418b565b915061478782614746565b600282019050919050565b7f7b2274726169745f74797065223a224f7267616e697a6572222c2276616c756560008201527f223a220000000000000000000000000000000000000000000000000000000000602082015250565b60006147ee60238361418b565b91506147f982614792565b602382019050919050565b7f227d2c0000000000000000000000000000000000000000000000000000000000600082015250565b600061483a60038361418b565b915061484582614804565b600382019050919050565b7f7b2274726169745f74797065223a2253746172742054696d65222c2276616c7560008201527f65223a0000000000000000000000000000000000000000000000000000000000602082015250565b60006148ac60238361418b565b91506148b782614850565b602382019050919050565b7f7b2274726169745f74797065223a22456e642054696d65222c2276616c75652260008201527f3a00000000000000000000000000000000000000000000000000000000000000602082015250565b600061491e60218361418b565b9150614929826148c2565b602182019050919050565b7f7d00000000000000000000000000000000000000000000000000000000000000600082015250565b600061496a60018361418b565b915061497582614934565b600182019050919050565b7f5d7d000000000000000000000000000000000000000000000000000000000000600082015250565b60006149b660028361418b565b91506149c182614980565b600282019050919050565b60006149d78261454a565b91506149e3828961456d565b91506149ee82614619565b91506149f982614665565b9150614a05828861456d565b9150614a1082614619565b9150614a1b826146b1565b9150614a2682614723565b9150614a3282876141e2565b9150614a3d8261476f565b9150614a48826147e1565b9150614a5482866141e2565b9150614a5f8261482d565b9150614a6a8261489f565b9150614a7682856141e2565b9150614a818261476f565b9150614a8c82614911565b9150614a9882846141e2565b9150614aa38261495d565b9150614aae826149a9565b9150819050979650505050505050565b7f646174613a6170706c69636174696f6e2f6a736f6e3b6261736536342c000000600082015250565b6000614af4601d8361418b565b9150614aff82614abe565b601d82019050919050565b6000614b1582614ae7565b9150614b2182846141e2565b915081905092915050565b6000604082019050614b41600083018561326d565b614b4e6020830184613303565b9392505050565b7f4164647265737320697320616c726561647920616e2061646d696e0000000000600082015250565b6000614b8b601b83613131565b9150614b9682614b55565b602082019050919050565b60006020820190508181036000830152614bba81614b7e565b9050919050565b6000614bcd82856141e2565b9150614bd982846141e2565b91508190509392505050565b7f4e487b7100000000000000000000000000000000000000000000000000000000600052601260045260246000fd5b6000614c1f826131d8565b9150614c2a836131d8565b9250828202614c38816131d8565b91508282048414831517614c4f57614c4e613cfc565b5b5092915050565b6000614c61826131d8565b9150614c6c836131d8565b9250828201905080821115614c8457614c83613cfc565b5b92915050565b7f4e487b7100000000000000000000000000000000000000000000000000000000600052603260045260246000fd5b6000614cc4826131d8565b915060008203614cd757614cd6613cfc565b5b600182039050919050565b6000604082019050614cf76000830185613303565b614d046020830184613303565b9392505050565b600081519050919050565b600082825260208201905092915050565b6000614d3282614d0b565b614d3c8185614d16565b9350614d4c818560208601613142565b614d558161316c565b840191505092915050565b6000608082019050614d75600083018761326d565b614d82602083018661326d565b614d8f6040830185613303565b8181036060830152614da18184614d27565b905095945050505050565b600081519050614dbb81613097565b92915050565b600060208284031215614dd757614dd6613061565b5b6000614de584828501614dac565b91505092915050565b6000614df9826131d8565b9150614e04836131d8565b925082614e1457614e13614be5565b5b82820490509291505056fe4142434445464748494a4b4c4d4e4f505152535455565758595a6162636465666768696a6b6c6d6e6f707172737475767778797a303132333435363738392b2fa264697066735822122068a91225edc379319e9ba1f78996eefb1401f8eac934b42b29294528231ffc6e64736f6c63430008140033",
  "linkReferences": {},
  "deployedLinkReferences": {}
}